:08000000803102288731EE2F48
:10085E0084314524843184313B24080064008001B6
:10086E000131890B362C0034603051018D008F011F
:10087E009101063093009001920108004001980109
:10088E009A01333092003F3094003F307E01CE000B
:10089E001B30B800B901CF01BA01D0010800F00138
:1008AE00F1014001B001B1010130A8000030A900F2
:1008BE00F201F301B201B3014030AA000030AB00E7
:1008CE00F401F501B401B5018030AC000030AD008B
:1008DE00F601F701B601B701FE30AE000030AF00F1
:1008EE00080084312F248431843156248431003021
:1008FE00F800F9008531DA2584310130F800003036
:10090E00F9008531DA2584310230F8000030F90023
:10091E008531DA2584310330F8000030F900853155
:10092E00DA2584318431A52484311530FC00C6309B
:10093E00890B9F2CFC0B9F2C00327E2CFA01FB01A5
:10094E0000307B02043003197A02031808007A354E
:10095E00283E860087011600FF3AF8001600F804BC
:10096E00031DC02C7A35203E860087010030C03F23
:10097E00C13F7A35703E860087011600FF3AF800B7
:10098E001600F804031DD22C7A35203E860087010E
:10099E000030C03FC13F7A35303E860087011600D9
:1009AE00FF3AF8001600F804031DE42C7A35203EB9
:1009BE00860087010030C03FC13F7A35283E860051
:1009CE0087011600013AF8001600F804031D072DE2
:1009DE007A35203E860087010130C03F0030C13F8E
:1009EE007A35283E860087010030C03FC13F7A35F8
:1009FE00703E860087010130C03F0030C13F4C2D54
:100A0E007A35703E860087011600013AF80016000E
:100A1E00F804031D2A2D7A35203E86008701013009
:100A2E00C03F0030C13F7A35703E860087010030EE
:100A3E00C03FC13F7A35303E860087010130C03F4E
:100A4E000030C13F4C2D7A35303E860087011600AE
:100A5E00013AF8001600F804031D4C2D7A35203E9D
:100A6E00860087010130C03F0030C13F7A35303EED
:100A7E00860087010030C03FC13F7A35283E860090
:100A8E0087010130C03F0030C13F7A35283E8600D5
:100A9E008701160001040319622D7A35203E860067
:100AAE0087011600013AF8001600F804031D622DA6
:100ABE007A35283EB32D7A35283E860087011600FA
:100ACE0001040319752D7A35203E86008701160024
:100ADE000104031D752D7A35283ECD2D7A35703ED5
:100AEE00860087011600010403198B2D7A35203EEE
:100AFE00860087011600013AF8001600F804031D5F
:100B0E008B2D7A35703EB32D7A35703E8600870177
:100B1E001600010403199E2D7A35203E86008701AA
:100B2E0016000104031D9E2D7A35703ECD2D7A35AB
:100B3E00303E86008701160001040319BB2D7A355D
:100B4E00203E860087011600013AF8001600F804D0
:100B5E00031DBB2D7A35303E86008701013081079B
:100B6E0041310318810AD52D7A35303E8600870132
:100B7E00160001040319D52D7A35203E8600870113
:100B8E0016000104031DD52D7A35303E86008701EF
:100B9E000130810241310030813B7F310130FA0753
:100BAE000030FB3DA72C7835703E86008701403F14
:100BBE00FA00413FFB00FA1FEB2D400118151815E6
:100BCE00181518151815F12D4001181518151811AE
:100BDE001811181118117835703E86008701403FA4
:100BEE00FA00413FFB007A1F022E18151815181532
:100BFE0018151815072E1815181518111811181183
:100C0E0018117835703E86008701403FFA00413F4B
:100C1E00FB00FA1E182E181518151815181518158C
:100C2E001D2E1815181518111811181118117835C0
:100C3E00703E86008701403FFA00413FFB007A1E5E
:100C4E002E2E18151815181518151815332E1815CB
:100C5E00181518111811181118117835703E8600D4
:100C6E008701403FFA00413FFB00FA1D442E181544
:100C7E001815181518151815492E181518151811B8
:100C8E001811181118117835703E86008701403FF3
:100C9E00FA00413FFB007A1D5A2E1815181518152B
:100CAE00181518155F2E181518151811181118117A
:100CBE0018117835703E86008701403FFA00413F9B
:100CCE00FB00FA1C702E1815181518151815181586
:100CDE00752E1815181518111811181118117835B8
:100CEE00703E86008701403FFA00413FFB007A1CB0
:100CFE00862E181518151815181518158B2E18156B
:100D0E00181518111811181118117835283E86006B
:100D1E008701403FFA00413FFB00FA1F9C2E181539
:100D2E001815181518151815A12E181518151811AF
:100D3E001811181118117835283E86008701403F8A
:100D4E00FA00413FFB007A1FB22E18151815181520
:100D5E0018151815B72E1815181518111811181171
:100D6E0018117835283E86008701403FFA00413F32
:100D7E00FB00FA1EC82E181518151815181518157B
:100D8E00CD2E1815181518111811181118117835AF
:100D9E00283E86008701403FFA00413FFB007A1E45
:100DAE00DE2E18151815181518151815E32E18150A
:100DBE00181518111811181118117835283E8600BB
:100DCE008701403FFA00413FFB00FA1DF42E181533
:100DDE001815181518151815F92E181518151811A7
:100DEE001811181118117835283E86008701403FDA
:100DFE00FA00413FFB007A1D0A2F18151815181519
:100E0E00181518150F2F1815181518111811181167
:100E1E0018117835283E86008701403FFA00413F81
:100E2E00FB00FA1C202F1815181518151815181573
:100E3E00252F1815181518111811181118117835A5
:100E4E00283E86008701403FFA00413FFB007A1C96
:100E5E00362F181518151815181518153B2F1815A7
:100E6E00181518111811181118117835303E860002
:100E7E008701403FFA00413FFB00FA1F4C2F181527
:100E8E001815181518151815512F1815181518119D
:100E9E001811181118117835303E86008701403F21
:100EAE00FA00413FFB007A1F622F1815181518150E
:100EBE0018151815672F181518151811181118115F
:100ECE0018117835303E86008701403FFA00413FC9
:100EDE00FB00FA1E782F1815181518151815181569
:100EEE007D2F18151815181118111811181178359D
:100EFE00303E86008701403FFA00413FFB007A1EDC
:100F0E008E2F18151815181518151815932F181546
:100F1E00181518111811181118117835303E860051
:100F2E008701403FFA00413FFB00FA1DA42F181520
:100F3E001815181518151815A92F18151815181194
:100F4E001811181118117835303E86008701403F70
:100F5E00FA00413FFB007A1DBA2F18151815181507
:100F6E0018151815BF2F1815181518111811181156
:100F7E0018117835303E86008701403FFA00413F18
:100F8E00FB00FA1CD02F1815181518151815181562
:100F9E00D52F181518151811181118111811783594
:100FAE00303E86008701403FFA00413FFB007A1C2D
:100FBE00E72F1815181518151815181518110800FB
:100FCE00181518151811181118111811080070306D
:100FDE00840000308500083084313524873120307C
:100FEE00840000308500183084313524400184316E
:020FFE00782C4D
:020000040001F9
:0A000E008C3FFF3F9F3FFF3FFF3F85
:00000001FF
